:0400000069EF00F0B4
:100008005982FACF30F0FBCF31F0D9CF32F0DACFC6
:1000180033F0F2AC12EF00F014EF00F05FEF00F0F5
:100028000E01C5A91AEF00F01CEF00F031EF00F047
:10003800CDA921EF00F023EF00F031EF00F002D856
:100048002FEF00F00500FA6E5450FD6E5550FE6E0D
:10005800FF6AFA5012005FEF00F0C5AB36EF00F010
:1000680038EF00F04DEF00F0CDAB3DEF00F03FEF83
:1000780000F04DEF00F002D84BEF00F00500FA6EEB
:100088005250FD6E5350FE6EFF6AFA5012005FEF39
:1000980000F0C3A152EF00F054EF00F05FEF00F062
:1000A800CBA159EF00F05BEF00F05FEF00F030EC10
:1000B8000BF05FEF00F033C0DAFF32C0D9FF31C078
:0E00C800FBFF30C0FAFF5992110048EF0BF019
:100F0000000040010000396E5AEF08F0230E391836
:100F1000D8A48DEF07F08FEF07F097EF07F035C0FB
:100F2000D9FF36C0DAFF020EDF6E7BEF08F035C066
:100F3000D9FF36C0DAFF010EDF6E20EE05F0355026
:100F4000D9263650DA22010EDF6E7BEF08F02F0E25
:100F50003964ADEF07F0AFEF07F0B7EF07F0390EE8
:100F60003964B5EF07F0B7EF07F0C7EF07F020EEF1
:100F700005F03550D9263650DA22010EDF6E35C025
:100F8000D9FF36C0DAFF010EDF6E7BEF08F035C007
:100F9000D9FF36C0DAFF030EDF6E20EE01F03550C8
:100FA000D9263650DA2239C0DFFF7BEF08F02F0E4A
:100FB0003964DDEF07F0DFEF07F0E7EF07F0390EF8
:100FC0003964E5EF07F0E7EF07F0F7EF07F020EE01
:100FD00005F03550D9263650DA22010EDF6E35C0C5
:100FE000D9FF36C0DAFF010EDF6E7BEF08F035C0A7
:100FF000D9FF36C0DAFF040EDF6E20EE02F0355066
:10100000D9263650DA2239C0DFFF7BEF08F02A0EEE
:101010003918D8A40EEF08F010EF08F042EF08F0EE
:1010200020EE03F03550D9263650DA2210EE02F0C9
:101030003550E1263650E222E750376E10EE01F0CF
:101040003550E1263650E222E7500A0DF35037249E
:10105000F00FDF6E35C0D9FF36C0DAFF010EDF6E4C
:1010600020EE04F03550D9263650DA22010EDF6E1C
:1010700020EE05F03550D9263650DA22000EDF6E0C
:101080007BEF08F035C0D9FF36C0DAFF010EDF6E06
:1010900020EE05F03550D9263650DA22010EDF6EEB
:1010A0007BEF08F035C0D9FF36C0DAFF010EDF6EE6
:1010B0007BEF08F035C0D9FF36C0DAFFDF50376E5E
:1010C000386A3850000AD8B468EF08F052EF08F0D8
:1010D0003750010AD8B486EF07F0030AD8B4A7EF57
:1010E00007F0010AD8B4D7EF07F0070AD8B407EF22
:1010F00008F052EF08F01200AFEC0BF0000E4AECD3
:1011000009F08E889180F28EF28C000E0F015F6FD5
:101110002EEC0CF03A0E346E170E356E23EC0CF0FC
:10112000440E346E000E356E5FEC0BF0F7EC0BF0F6
:101130000009D8B49EEF08F0A0EF08F0A8EF08F07F
:10114000440E356E000E366E87EC0AF083EC07F025
:10115000440E346E000E356E15EC0BF00009D8B459
:10116000B4EF08F0B6EF08F0C0EF08F0440E346EAC
:10117000000E356E02EC0CF0576E586A57BE5806DA
:101180002550D8B4C6EF08F0C8EF08F0CCEF08F04F
:10119000000E256E1F4A202A57501F5C2050800ADF
:1011A000436E5850800A4358D8A0D9EF08F0DBEFBF
:1011B00008F096EF08F0000E206E000E1F6E1DC0A6
:1011C0003BF01EC03CF0B0EC0AF01E505BEC0AF0A5
:1011D0001D505BEC0AF096EF08F069EF00F0010E8D
:1011E0002924D96EDA6A000EDA22000EDF6E9DA481
:1011F000FCEF08F0FEEF08F011EF09F0010E2924D2
:10120000D96EDA6A000EDA22DF8202D811EF09F015
:101210000500FA6E5050FD6E5150FE6EFF6AFA5096
:1012200012009DA216EF09F018EF09F02BEF09F05C
:10123000010E2924D96EDA6A000EDA22DF8402D880
:101240002BEF09F00500FA6E4E50FD6E4F50FE6E0A
:10125000FF6AFA501200010E2924D96EDA6A000ED4
:10126000DA22DF50D8B437EF09F039EF09F047EF51
:1012700009F002D845EF09F00500FA6E4C50FD6EFA
:101280004D50FE6EFF6AFA50120049EF09F076ECFD
:101290000BF01200356E96BA50EF09F052EF09F0DC
:1012A000A1EF09F03550040D010EF326000EF422D3
:1012B000010EF324F66E0F0EF420F76EF86A000E9E
:1012C000F8220800F5CF95FF3550040D010EF324E8
:1012D000F66E0F0EF420F76EF86A000EF822080082
:1012E000F5CF96FF000E976E3550040D020EF326D3
:1012F000000EF422010EF324F66E0F0EF420F76EAA
:10130000F86A000EF8220800F5CF93FF3550040D5F
:10131000030EF326000EF422010EF324F66E0F0ED8
:10132000F420F76EF86A000EF8220800F5CF34F0CA
:101330003446344634468A503418F70B34188A6ED3
:10134000968A1200000E876E000E866E000E836E67
:10135000000E846E000E856E060E8C6E8868EF0E91
:10136000896E570E8A6EFE0E8B6EFE0E0F01266F73
:10137000070E216FEF0E196F060E2E6F1169000E0A
:10138000256F000E2D6F000E186F000E106F000EEF
:10139000206F000E2C6F000E0F6F000E176F000EE7
:1013A0001F6F000E246F0E6916691E692369070EF0
:1013B0002B6F0D6915691D6922690F0E2A6F130EB7
:1013C0000E01B76F160EB56F0F0EFA6F100EFC6F91
:1013D000090EFE6F140EB86F12000E01C59BDE0ED3
:1013E000346E110E356E0FEC0CF00E01C599AE0E79
:1013F000346E150E356E0AEC0CF0080E9F6E900ED2
:101400009D6E240E9E6E220E9B6E000E9C6E660ECE
:10141000346E180E356E19EC0CF0500E346E180E3A
:10142000356E14EC0CF0560E346E180E356E1EEC44
:101430000CF0000E266E000E2B6E000E2A6E080EAB
:10144000566E000E296E000E286E000E276E0E01DD
:10145000C58B1200000E6A6E000E6B6E000E6C6E75
:10146000000E6D6E000E686E000E696E000E666EE8
:10147000000E0F015F6F000E5D6F000E5E6F000EBD
:10148000596F000E5A6F000E5B6F000E656E000EF6
:10149000586F040E566F070E576F840E606E010E64
:1014A0005C6F0E01CB91C381680E346E180E356EE1
:1014B00023EC0CF01200346E5650D8B462EF0AF0F0
:1014C00064EF0AF05CEF0AF00E01C5B96AEF0AF0AA
:1014D0006CEF0AF070EF0AF034C09AFF85EF0AF063
:1014E000C599110E2B24D96EDA6A000EDA2234C0A7
:1014F000DFFF2B2A070E2B6480EF0AF082EF0AF041
:1015000084EF0AF0000E2B6E5606C5891200275094
:10151000D8B48DEF0AF08FEF0AF087EF0AF0010ED2
:101520002824D96EDA6A000EDA22DF50266E090E00
:101530002824D96EDA6A000EDA22DF50346E282AA7
:10154000070E2864A6EF0AF0A8EF0AF0AAEF0AF047
:10155000000E286E0E01C59B2706C58B3450120065
:101560003BC03DF03CC03EF0D8903D363E36D89072
:101570003D363E363DC03FF03EC040F0000E3F10CD
:10158000416E100E4010426E41C02DF042502C6E44
:1015900091902C0E356E000E366E000E386E020ED7
:1015A000376EF8EC0AF091808E988E881200080E43
:1015B0005660DDEF0AF0DFEF0AF0F5EF0AF0110EEA
:1015C0002A24D96EDA6A000EDA22DF509A6E2A2AAD
:1015D000070E2A64EEEF0AF0F0EF0AF0F2EF0AF0DD
:1015E000000E2A6E562AF7EF0AF00E01C599120076
:1015F00035C039F036C03AF007EF0BF039C0D9FFEB
:101600003AC0DAFFDF50DDEC0BF0394A3A2A3706F0
:10161000D8A03806372806E13828D8A412EF0BF0F6
:1016200014EF0BF0FEEF0AF0120020EE04F034503D
:10163000D9263550DA22DF50D8B421EF0BF023EF52
:101640000BF02EEF0BF020EE04F03450D92635507D
:10165000DA22000EDF6E010E2FEF0BF0000E1200EB
:101660000E01CB914A504B10D8B439EF0BF03BEF41
:101670000BF047EF0BF002D847EF0BF00500FA6EC6
:101680004A50FD6E4B50FE6EFF6AFA501200120077
:10169000640EF66E180EF76E000EF86E0900F5CFA8
:1016A00057F00900F5CF58F000EE01F02D0EEE6A6C
:1016B000E806FDE15990599200017CEF08F034C032
:1016C000D9FF35C0DAFF010EDF6E20EE04F0345092
:1016D000D9263550DA22000EDF6E20EE05F03450A8
:1016E000D9263550DA22000EDF6E1200090E2924A9
:1016F000D96EDA6A000EDA2299CFDFFF292A070EA7
:10170000296485EF0BF087EF0BF089EF0BF0000EEB
:10171000296E272A1200130E0E01B76F140EB86F30
:101720000F0EFA6F100EFC6F400E956E000E966E47
:10173000010E936E8A96969A1200000E0F015F6F4B
:1017400064502F6E2E6A63502E241D6E000E2F20C3
:101750001E6E0E01CE93010E256ECB91120030EC61
:101760000CF0CFEC0BF08BEC0BF0A2EC09F0EBECF7
:101770000BF02AEC0AF0C0EC0BF0EDEC09F01200D3
:10178000010EBF6E000EBE6E000EC06E250EBC6E4A
:10179000000EBB6E0E01CE93C00EBD6E1200000E89
:1017A0000E01E16F000EE26F000EE36F000EE46FBA
:1017B000000EE56F000EE66F1200346E34C092FF2B
:1017C0000E01CDA1E6EF0BF0E8EF0BF0E0EF0BF030
:1017D000CD9192501200600E0E01D86F000EDA6F9C
:1017E000000EDC6F050EDE6F000EDD6F120027505D
:1017F000D8A4FDEF0BF000EF0CF0010E01EF0CF0A0
:10180000000E120020EE03F03450D9263550DA22B3
:10181000DF50120034C054F035C055F0120034C00F
:1018200052F035C053F0120034C04EF035C04FF0C6
:10183000120034C050F035C051F0120034C04CF0EA
:1018400035C04DF0120034C04AF035C04BF01200E4
:101850009D989D88120076EC0BF01200BD8E120050
:0A186000F29A1200010012001200BB
:020000040020DA
:10000000FF0FFF0FFF0FFF0FFF0FFF0FFF0FFF0F80
:020000040030CA
:0C000000ECFFFFFF9FFFFFFFFFFFFFFF73
:00000001FF
